S00D00006D6F64656D2E7372656305
S11300000C945E000C94FC0B0C94230C0C94860052
S11300100C9486000C9486000C94DE0C0C948600E0
S11300200C9486000C94E80C0C9486000C948600C6
S11300300C9486000C94090B0C9486000C94860096
S11300400C9497060C9486000C94B2040C94E4046B
S11300500C9486000C9486000C9486000C94860004
S11300600C9486000C948600000000080002010035
S1130070000304070000000000000000010204085F
S113008010204080010204081020010204081020FE
S1130090040404040404040402020202020203032A
S11300A00303030300000000250028002B000000C8
S11300B00000240027002A001405E00A11241FBEB2
S11300C0CFEFD8E0DEBFCDBF11E0A0E0B1E0E6E8BD
S11300D0FBE102C005900D92AC38B107D9F723E0DB
S11300E0ACE8B1E001C01D92A231B207E1F710E023
S11300F0CEE5D0E004C02197FE010E94A40DCC35CA
S1130100D107C9F70E9442050C94C10D0C9400005C
S1130110909313028093120281E080938D010895DD
S113012080918C01823039F588E093E00E949F0B26
S113013010928C0164E071E082E991E00E94AA0DC2
S1130140892B69F48BEF92E00E949E0A68E071E0CB
S113015084E192E00E949D0581E080938E0180E815
S1130160E2E9F1E0DF011D928A95E9F7109290012E
S113017010928F0108958F5F80938C0108959FEBF7
S1130180980F963010F4875308959FE9980F96308E
S113019010F48755089580538A3008F080E008955C
S11301A08F929F92AF92BF92CF92DF92EF92FF9283
S11301B00F931F93CF93DF93CDB7DEB7C154D1090B
S11301C00FB6F894DEBF0FBECDBFFC0180918E0147
S11301D0DF010D900020E9F71197811143C07D01E3
S11301E0EE1AFF0AF694E794CE2CEE2009F445C1EA
S11301F08F01CE0101964C015C01F80180810E94BF
S1130200BF00D82EF80181810E94BF00D29490EFE4
S1130210D9228D29F50181830E5F1F4FFFEFAF1A9D
S1130220BF0A8A2D88198C1540F3E9828DB79EB7D1
S1130230815491090FB6F8949EBF0FBE8DBFADB720
S1130240BEB7119681E4F40101900D928A95E1F70D
S11302508CEF92E00E945F080FB6F894DEBF0FBEE9
S1130260CDBF0BC1FA2EFE1AF4E0FF1590F168E140
S113027071E082E991E00E94AA0D892B09F4F7C08C
S11302806EE171E082E991E00E94AA0D892B59F494
S11302906BE171E084E192E00E949D058BEF92E0B6
S11302A00E94CA0AEAC062E271E082E991E00E9417
S11302B0AA0D892B09F0E1C010928E0166E271E06B
S11302C084E192E00E949D058BEF92E00E94970AE0
S11302D0D4C0809196018D33A9F485E0F81691F08D
S11302E0809197010E94BF00082F809198010E947D
S11302F0BF008F7090E1099F90011124182F122BD9
S113030000E001C001E044E050E063E371E082E911
S113031091E00E94B30D892B41F4013009F0ADC086
S113032040E150E060E071E011C044E050E068E377
S113033071E082E991E00E94B30D892B61F40130F0
S113034009F09BC040E150E062E071E084E192E09A
S11303500E94850692C044E050E06DE371E082E9BA
S113036091E00E94B30D892B69F4011106C0612F3D
S11303708CEF92E00E94DD077AC040E150E060918A
S1130380010362C044E050E062E471E082E991E07C
S11303900E94B30D892B39F501113CC0E9E0FE122E
S11303A036C0809197010E94BF00182F8091980158
S11303B00E94BF001295107F812B8983809199013F
S11303C00E94BF00182F80919A010E94BF001295CD
S11303D0107F812B8A83BE016F5F7F4F8CEF92E089
S11303E00E94CA0744C044E050E06DE471E082E931
S11303F091E00E94B30D892BD9F044E050E062E50E
S113040071E082E991E00E94B30D892B11F167E458
S113041071E02FC060910203709103037627672770
S1130420762740E150E084E192E00E94240625C052
S1130430011106C0612F8CEF92E00E94CF0717C014
S113044040E150E06091040384E192E00E940C06D4
S113045014C00111DCCF111102C044E003C01130FB
S1130460B1F646E067E08CEF92E00E9432076BE160
S113047071E084E192E00E949D05CF5BDF4F0FB6EF
S1130480F894DEBF0FBECDBFDF91CF911F910F91C6
S1130490FF90EF90DF90CF90BF90AF909F908F90A0
S11304A0089526E040E056E960E070E084E192E0DF
S11304B00E944D0484E192E00E942B046EE771E0F7
S11304C084E192E00E949D0540E060E08BEF92E0C1
S11304D00E94A10A40EC6EE38CEF92E00E94320786
S11304E080E8E2E9F1E0DF011D928A95E9F744E052
S11304F067E08CEF92E00E94320788E890E09093E6
S113050007038093060340E251EA67E070E088E065
S113051093E00E94980B2FEF3FEFA90160E970E090
S113052088E093E00E94AE0B67E571E084E192E01D
S11305300C949D050F931F93CF9380918D01882375
S113054009F477C08BEF92E00E949E0A10928D010D
S113055080918E01811169C0E0911202F091130221
S1130560C7AD64E671E084E192E00E949005C03179
S113057030F466E671E084E192E00E94900540E187
S113058050E06C2F84E192E00E940506E091120293
S1130590F0911302E05CFF4F8081803130F466E615
S11305A071E084E192E00E949005E0911202F091E2
S11305B01302E05CFF4F40E150E0608184E192E08F
S11305C00E94050668E671E084E192E00E949005CD
S11305D0C0E0E0911202F09113028081C817F8F490
S11305E00C2F10E0E00FF11F8181803140F440E1D5
S11305F050E060E070E084E192E00E947E06809129
S1130600120290911302FC01E00FF11F40E150E04F
S1130610618184E192E00E940506CF5FDACF6EE744
S113062071E084E192E00E949D058BEF92E00E94CC
S1130630970A84E192E00E947103181619060CF0DF
S11306404CC08BEF92E00E949E0A84E192E00E94EB
S11306508B038093910120918F01309190012F376A
S113066031058CF48D30D9F488E093E00E949F0B1F
S1130670E0918F01F0919001EE56FE4F108282E9D5
S113068091E00E94D00080E8E2E9F1E0DF011D92F0
S11306908A95E9F71092900110928F0117C08A3061
S11306A0A9F0F901EE56FE4F80832F5F3F4F309340
S11306B0900120938F0110928C012FEF3FEFA9013D
S11306C060E970E088E093E00E94AE0B8BEF92E06B
S11306D0CF911F910F910C94970ACF911F910F9175
S11306E00895FC01918D228D892F90E0805C9F4FAD
S11306F0821B91098F7399270895FC01918D828D36
S1130700981731F0828DE80FF11D858D90E00895E2
S11307108FEF9FEF0895FC01918D828D981761F002
S1130720828DDF01A80FB11D5D968C91928D9F5F24
S11307309F73928F90E008958FEF9FEF0895FC01CF
S1130740538D448D252F30E0842F90E0821B930B32
S1130750541710F0CF960895019708958AE095E014
S1130760892B49F080E090E0892B29F00E940A054A
S113077081110C9400000895FC01848DDF01A80F01
S1130780B11DA35ABF4F2C91848D90E001968F73B5
S11307909927848FA689B7892C93A089B1898C91D4
S11307A0837080648C93938D848D981306C0028823
S11307B0F389E02D80818F7D80830895EF92FF92ED
S11307C00F931F93CF93DF93EC0181E0888F9B8D70
S11307D08C8D981305C0E889F989808185FD26C030
S11307E0F62E0B8D10E00F5F1F4F0F731127E02EB5
S11307F08C8DE8120CC00FB607FCFACFE889F98992
S1130800808185FFF5CFCE010E94BC03F1CF8B8D93
S1130810FE01E80FF11DE35AFF4FF0829FB7F894F1
S11308200B8FEA89FB89808180620AC09FB7F894A4
S1130830EE89FF896083E889F98980818370806407
S113084080839FBF81E090E0DF91CF911F910F9152
S1130850FF90EF900895CF93DF93EC01888D882368
S1130860C9F0EA89FB89808185FD05C0A889B98919
S11308708C9186FD0FC00FB607FCF5CF808185FFF4
S1130880F2CFA889B9898C9185FFEDCFCE010E9462
S1130890BC03E7CFDF91CF910895CF92DF92EF921F
S11308A0FF921F93CF93DF93EC016A017B01122F18
S11308B0E889F98982E080834115514E610571050B
S11308C0B1F060E079E08DE390E0A70196010E9429
S11308D0820DDA01C9010197A109B109B695A7955D
S11308E0979587959C01211580E13807A8F0E88940
S11308F0F989108260E874E88EE190E0A70196011E
S11309000E94820DDA01C9010197A109B109B695C6
S1130910A795979587959C01EC85FD853083EE8599
S1130920FF852083188EEC89FD891083EA89FB8971
S1130930808180618083EA89FB89808188608083EB
S1130940EA89FB89808180688083EA89FB898081C8
S11309508F7D8083DF91CF911F91FF90EF90DF9087
S1130960CF9008951F920F920FB60F9211242F93D8
S11309708F939F93EF93FF93E0912402F0912502CC
S11309808081E0912A02F0912B0282FD12C09081B5
S113099080912D028F5F8F7320912E02821751F068
S11309A0E0912D02F0E0EC5EFD4F958F80932D02D7
S11309B001C08081FF91EF919F918F912F910F90B2
S11309C00FBE0F901F9018951F920F920FB60F92A3
S11309D011242F933F934F935F936F937F938F9340
S11309E09F93AF93BF93EF93FF9384E192E00E94B0
S11309F0BC03FF91EF91BF91AF919F918F917F9134
S1130A006F915F914F913F912F910F900FBE0F9077
S1130A101F90189584E192E00E94710321E0892BD4
S1130A2009F420E0822F0895E4E1F2E013821282B7
S1130A3088EE93E0A0E0B0E084839583A683B78337
S1130A408EE691E09183808385EC90E0958784879E
S1130A5084EC90E09787868780EC90E0918B808B84
S1130A6081EC90E0938B828B82EC90E0958B848B6D
S1130A7086EC90E0978B868B118E128E138E148EDB
S1130A80089508950E94EC060E9441050E945102B7
S1130A90CEEAD3E00E949A022097E1F30E94AE03CB
S1130AA0F9CFCF92DF92EF92FF920F931F93CF93E0
S1130AB0DF936C017A018B01C0E0D0E0CE15DF0535
S1130AC081F0D8016D918D01D601ED91FC910190D9
S1130AD0F081E02DC6010995892B11F02196EECF06
S1130AE07E01C701DF91CF911F910F91FF90EF908D
S1130AF0DF90CF9008956115710579F0FB010190A5
S1130B000020E9F73197AF01461B570BDC01ED914B
S1130B10FC910280F381E02D099480E090E0089537
S1130B200C947B05DC01ED91FC910190F081E02DAA
S1130B3009946CE771E00C947B050F931F93CF939A
S1130B40DF93EC010E947B058C01CE010E94990584
S1130B50800F911FDF91CF911F910F9108958F9274
S1130B609F92AF92BF92EF92FF920F931F93CF93F6
S1130B70DF93CDB7DEB7A1970FB6F894DEBF0FBEF3
S1130B80CDBF7C01FA01CB0119A2223008F42AE07E
S1130B908E010F5D1F4F822E912CA12CB12CBF0111
S1130BA0A50194010E94820DF901CA0101501109A5
S1130BB06A3010F4605D01C0695CD8016C93232B2A
S1130BC0242B252B61F7B801C7010E947B05A19650
S1130BD00FB6F894DEBF0FBECDBFDF91CF911F914A
S1130BE00F91FF90EF90BF90AF909F908F900895DA
S1130BF02115310541F4DC01ED91FC910190F08166
S1130C00E02D642F09940C94AF059A01462F50E00F
S1130C1060E070E00C94F8050F931F93CF93DF937B
S1130C20EC010E9405068C01CE010E949905800FFB
S1130C30911FDF91CF911F910F9108959A01AB01FC
S1130C4060E070E00C94F8050F931F93CF93DF934B
S1130C50EC010E941E068C01CE010E949905800FB2
S1130C60911FDF91CF911F910F910895CF92DF9241
S1130C70EF92FF920F931F93CF93DF9321153105CA
S1130C8081F4DC01ED91FC910190F081E02D642F61
S1130C90DF91CF911F910F91FF90EF90DF90CF9054
S1130CA009942A30310501F577FF1DC06A017B01E3
S1130CB0EC016DE20E9492058C0144275527BA018C
S1130CC04C195D096E097F092AE0CE010E94AF0527
S1130CD0800F911FDF91CF911F910F91FF90EF90A3
S1130CE0DF90CF9008952AE0DF91CF911F910F916B
S1130CF0FF90EF90DF90CF900C94AF059A01AB0179
S1130D00770F660B770B0C9436060F931F93CF93D4
S1130D10DF93EC010E947E068C01CE010E949905AE
S1130D20800F911FDF91CF911F910F9108951F9212
S1130D300F920FB60F9211242F933F938F939F938B
S1130D40AF93BF938091B2029091B302A091B40289
S1130D50B091B5023091B10223E0230F2D3720F476
S1130D600196A11DB11D05C026E8230F0296A11D01
S1130D70B11D2093B1028093B2029093B302A09369
S1130D80B402B093B5028091B6029091B702A091DB
S1130D90B802B091B9020196A11DB11D8093B602AB
S1130DA09093B702A093B802B093B902BF91AF91E8
S1130DB09F918F913F912F910F900FBE0F901F9095
S1130DC018958230910538F0880F991F880F991F64
S1130DD005970197F1F70895789484B5826084BDEE
S1130DE084B5816084BD85B5826085BD85B581602B
S1130DF085BDEEE6F0E0808181608083E1E8F0E08B
S1130E001082808182608083808181608083E0E8B9
S1130E10F0E0808181608083E1EBF0E08081846098
S1130E208083E0EBF0E0808181608083EAE7F0E09A
S1130E3080818460808380818260808380818160FE
S1130E4080838081806880831092C1000895FC01B2
S1130E501382158285EB868387E487838FEF8087EF
S1130E60118208951F93CF93DF93EC01142F2A98D6
S1130E701C99FECFCE010E94030B612FCE010E946C
S1130E80030B2A9ADF91CF911F910895DF92EF927D
S1130E90FF920F931F93CF93DF938C01D42EE52EF3
S1130EA0F22E60642A981C99FECFC8010E94030B9D
S1130EB0CD2DDE2DCE018F0D911D7C01CE15DF05CC
S1130EC029F06991C8010E94030BF8CF2A9ADF9197
S1130ED0CF911F910F91FF90EF90DF9008952A9882
S1130EE01C99FECF0E94030B2A9A0895CF93DF9397
S1130EF0EC01642B2A981C99FECFCE010E94030BAF
S1130F0060E0CE010E94030B2A9ADF91CF910895ED
S1130F10DF92EF92FF920F931F93CF93DF938C0195
S1130F20D62EE72EF22E642F606C2A981C99FECFE1
S1130F30C8010E94030BCD2DDE2DCE018F0D911D16
S1130F407C01CE15DF0531F060E0C8010E94030B7F
S1130F508993F7CF2A9ADF91CF911F910F91FF9038
S1130F60EF90DF9008950F931F93CF93DF93EC01DD
S1130F70062F142F462F64E00E943207412F65E0AC
S1130F80CE010E9432070E831F83DF91CF911F9100
S1130F900F910895FB01418160810C94B3071F9365
S1130FA0CF93DF93EC01162F462F69E00E9432079E
S1130FB01887DF91CF911F9108951F93CF93DF93EB
S1130FC0EC01162F462F6AE00E9432071D83DF9141
S1130FD0CF911F9108951F93CF93DF93EC01162FA8
S1130FE0623079F06330C1F0613009F542E26DE0BE
S1130FF00E94320741EB6EE0CE010E9432074BE3C0
S113100020C040E16DE00E94320747EA6EE0CE0165
S11310100E94320742E615C043E26DE00E943207A7
S11310204EE46EE0CE010E94320744EC0AC041E275
S11310306DE00E94320742E66EE0CE010E94320764
S113104046E76FE0CE010E9432071B83DF91CF9108
S11310501F91089561E083E00E94AF0C60E084E09A
S11310600C94AF0CCF93DF93EC018981882319F0A2
S1131070CE010E942A0865E3CE010E946F0782E038
S11310808A83DF91CF91089561E084E00E94AF0CE0
S113109060E083E00C94AF0CCF93DF93EC0164E346
S11310A00E946F0781E08A838981882329F0CE0119
S11310B0DF91CF910C944408DF91CF910895FF9272
S11310C00F931F93CF93DF93CDB7DEB78C0182E0EC
S11310D0F8018283C8010E944C0840EC65E3C80112
S11310E00E947607982F9F719D3039F08131A9F7BE
S11310F06AE3C8010E946F07F0CF84EF91E00E9479
S1131100E1064885442379F06FE3C8010E94320761
S11311102885AE01475F5F4F6FE3C8010E94460711
S1131120C8010E94320840EC65E3C8010E947607BA
S11311308F718351833080F066E3C8010E946F078A
S11311406BE3C8010E946F07C8010E944C0881E04C
S1131150F8018283F12C1CC04A9BFECF4A99FECF32
S113116040EC6AE3C8010E9476078F77FF24F3946A
S11311708111F12C66E3C8010E946F076BE3C8017B
S11311800E946F07C8010E944C0881E0F801828325
S11311908F2DDF91CF911F910F91FF9008950F93A1
S11311A01F93CF93DF93CDB7DEB7C154D1090FB6E8
S11311B0F894DEBF0FBECDBF8C014EE260E00E940A
S11311C032074EE261E0C8010E94320746E062E065
S11311D0C8010E94320747E063E0C8010E94320759
S11311E04DE366E0C8010E94320746E067E0C801AB
S11311F00E94320745E068E0C8010E943207B80146
S11312006A5F7F4FC8010E94CA07F8016085C80160
S11312100E94CF07F8016581C8010E94DD0748E0FC
S11312206BE0C8010E94320740E06CE0C8010E94F4
S11312303207F8016381C8010E94EB07F801848139
S1131240813011F447EC01C04AEC60E1C8010E940E
S1131250320743E861E1C8010E94320743E962E1D1
S1131260C8010E94320742E263E1C8010E943207CA
S113127048EF64E1C8010E94320745E365E1C80113
S11312800E94320747E066E1C8010E94320740E24B
S113129067E1C8010E94320748E168E1C8010E9481
S11312A0320746E169E1C8010E9432074CE66AE16F
S11312B0C8010E94320743E46BE1C8010E9432076F
S11312C040E46CE1C8010E94320741E96DE1C801C4
S11312D00E94320747E86EE1C8010E9432074BE6DC
S11312E06FE1C8010E9432074BEF60E2C8010E941F
S11312F0320746E561E2C8010E94320740E162E23A
S1131300C8010E94320749EE63E2C8010E94320715
S11313104AE264E2C8010E94320740E065E2C80183
S11313200E9432074FE166E2C8010E94320741E49D
S113133067E2C8010E94320740E068E2C8010E94E7
S1131340320749E569E2C8010E9432074FE76AE2C1
S1131350C8010E9432074FE36BE2C8010E943207C2
S113136041E86CE2C8010E94320745E36DE2C8011E
S11313700E94320749E06EE2C8010E9432071982D6
S11313808DB79EB7815491090FB6F8949EBF0FBED6
S11313908DBFADB7BEB7119681E4FE0131960190C1
S11313A00D928A95E1F7C8010E945F080FB6F89480
S11313B0DEBF0FBECDBFCF5BDF4F0FB6F894DEBFED
S11313C00FBECDBFDF91CF911F910F910895CF93A1
S11313D0DF93EC012A9A85E090E00E94E1062A98C6
S11313E08AE090E00E94E1062A9A89E290E00E9455
S11313F0E1062A981C99FECF60E3CE010E94030BFC
S11314001C99FECF2A9ACE01DF91CF910C94CF087C
S1131410CF93DF93EC016B834C830E94E40A60E07A
S113142082E00E94730CCE010E94E70940E66EE35D
S1131430CE01DF91CF910C9432070F931F93CF937A
S1131440DF93EC018B0140EC6BE30E947607982F4D
S11314509F7759F087FD09C040E86FE3CE010E94F1
S11314607607F80180838E3318F0F80110821FC0CC
S1131470282F4FE3B8016F5F7F4FCE010E9488078A
S113148040E86FE3CE010E947607F80187AF40E899
S11314906FE3CE010E947607F801E05CFF4F982FBE
S11314A09F779083881F8827881FF80186AF66E39B
S11314B0CE010E946F076AE3CE010E946F07CE013E
S11314C00E944C08F8018081DF91CF911F910F9108
S11314D0089580E00E94EA0B8091FE028130A9F415
S11314E06AEB72E08CEF92E00E941D0A882369F097
S11314F08091F802882349F0E0910603F0910703F4
S1131500309719F08AEB92E0099542E050E069E6E1
S11315107AE080E00C94CA0BCF93DF93EC01019640
S11315200E9427071C861B86DF91CF91089542E015
S113153050E069E67AE080E00C94CA0B80E00C94F9
S1131540EA0BEF92FF920F931F93CF93DF93EC017B
S1131550F62EE42E0E940D0D8E010F5F1F4F4E2DAF
S11315606F2DC8010E94080A82E390E00E94E10600
S1131570C8010E944C0842E050E069E67AE080E04D
S11315800E94CA0B1882DF91CF911F910F91FF9097
S1131590EF9008950FB6F894A89580916000886143
S11315A080936000109260000FBE98E088E10FB64F
S11315B0F894A895809360000FBE90936000FFCFCD
S11315C08BEF92E00C948C0A61E08AE00E94AF0CED
S11315D061E08AE00E94730C61E08BE00E94730C6E
S11315E060E08CE00E94730C61E08DE00E94730C5B
S11315F061E08DE00E94AF0C60E08BE00E94AF0CD4
S113160080E58CBD08956EBD0DB407FEFDCF8EB58B
S113161008951F920F920FB60F9211242F933F93A8
S11316204F935F936F937F938F939F93AF93BF93E6
S1131630EF93FF93E0910C03F0910D030995FF9153
S1131640EF91BF91AF919F918F917F916F915F9136
S11316504F913F912F910F900FBE0F901F901895AF
S1131660FC01A3E0440F551F661F771FAA95D1F70D
S11316704115510581E06807710514F481E00EC03D
S113168033E075956795579547953A95D1F7411588
S1131690510581E0680771051CF482E0828331C042
S11316A023E075956795579547952A95D1F7411588
S11316B0510581E06807710514F483E0EFCF92E0EF
S11316C075956795579547959A95D1F741155105A5
S11316D081E06807710514F484E0E0CF82E0759539
S11316E06795579547958A95D1F785E0828341158B
S11316F0510581E06807710524F04FEF5FEF60E06A
S113170070E08FB78383F8945183408350938700AC
S11317104093860083818FBF80918100887F80936E
S11317208100909181008281892B809381000895AA
S11317301092800020E1209381000C94300BEFE69E
S1131740F0E080818E7F80830895E1E8F0E02081DD
S1131750DC0112968C91822B808308950F931F9342
S1131760CF93DF93EC018B01BA01A901141615067E
S11317701606170614F40E94300B1D830C8381E0B7
S113178080936F00CE01DF91CF911F910F910C9444
S1131790A50B08958230E8F4E82FF0E0EE0FFF1F68
S11317A0E050FF4F71836083813041F08091690084
S11317B08C7F482B40936900E89A089580916900D2
S11317C0837F440F551F440F551F482B40936900D6
S11317D0E99A0895823078F4813011F0E89801C0D4
S11317E0E998E82FF0E0EE0FFF1FE050FF4F89EC7F
S11317F09BE09183808308951F920F920FB60F92FE
S113180011242F933F934F935F936F937F938F9301
S11318109F93AF93BF93EF93FF93E0910001F091F7
S113182001010995FF91EF91BF91AF919F918F9124
S11318307F916F915F914F913F912F910F900FBEC8
S11318400F901F9018951F920F920FB60F921124AC
S11318502F933F934F935F936F937F938F939F93B4
S1131860AF93BF93EF93FF93E0910201F0910301D3
S11318700995FF91EF91BF91AF919F918F917F91C6
S11318806F915F914F913F912F910F900FBE0F90E9
S11318901F901895833081F028F4813099F08230BC
S11318A0A1F008958730A9F08830B9F08430D1F4DC
S11318B0809180008F7D03C0809180008F7780931A
S11318C08000089584B58F7702C084B58F7D84BD70
S11318D008958091B0008F7703C08091B0008F7D10
S11318E08093B0000895CF93DF9390E0FC01E45817
S11318F0FF4F2491FC01E057FF4F8491882361F14D
S113190090E0880F991FFC01E255FF4FC591D491D7
S1131910FC01EC55FF4FA591B491611109C09FB72B
S1131920F8948881209582238883EC912E230BC020
S1131930623061F49FB7F8948881322F3095832305
S11319408883EC912E2B2C939FBF06C08FB7F894FD
S1131950E8812E2B28838FBFDF91CF9108951F93A9
S1131960CF93DF93282F30E0F901E859FF4F84919A
S1131970F901E458FF4FD491F901E057FF4FC491A6
S1131980CC23C1F0162F81110E944A0CEC2FF0E0F9
S1131990EE0FFF1FEC55FF4FA591B4919FB7F8943C
S11319A0111104C08C91D095D82302C0EC91DE2B88
S11319B0DC939FBFDF91CF911F9108951F920F92E7
S11319C00FB60F9211240F900FBE0F901F90189511
S11319D01F920F920FB60F9211248F939F93AF9380
S11319E0BF9380910E0390910F03A0911003B091C7
S11319F011030196A11DB11D80930E0390930F0353
S1131A00A0931003B0931103BF91AF919F918F9155
S1131A100F900FBE0F901F901895CF93DF93F09106
S1131A206600E0918000309181002091B0008FE346
S1131A308093660010926F001092700080E2809391
S1131A40B600109280001092B00081E08093B10043
S1131A5080938100B09A109285001092840090E4E3
S1131A6044E650E060E070E0A1E0915009F43BC02E
S1131A70B89A1092B2008091B600837191F0B09B35
S1131A80FACFB09A10928500109284004150510907
S1131A906109710981F71092B600F093660080E045
S1131AA02EC0A09381001092850010928400B89BF0
S1131AB0FECF10928100C0918400D0918500C7357B
S1131AC0D44F20F08091660081500AC0C0918400F8
S1131AD0D0918500C23FD34F30F4809166008F5F70
S1131AE080936600C2CF1092B600B89A1092B200EA
S1131AF0E0938000309381002093B00081E0DF9177
S1131B00CF910895A1E21A2EAA1BBB1BFD010DC0A3
S1131B10AA1FBB1FEE1FFF1FA217B307E407F50799
S1131B2020F0A21BB30BE40BF50B661F771F881F75
S1131B30991F1A9469F760957095809590959B010B
S1131B40AC01BD01CF010895EE0FFF1F0590F49184
S1131B50E02D0994FB01DC018D91019080190110A5
S1131B60D9F3990B0895FB01DC014150504030F04A
S1131B708D910190801919F40020B9F7881B990BF5
S1091B800895F894FFCF64
S1131B86C90BC90B2B2B2B004F4B2D436F6D6D616E
S1131B966E64206D6F6465004154004F4B004154E0
S1131BA65A0041544F004F4B2D44617461206D6FB0
S1131BB66465004154485600415446560041544316
S1131BC6480041545357004552524F520041544421
S1131BD6410041544143004D6F64656D2072656157
S1131BE66479210028003000290000000000DE038B
S1131BF651059F032B0471038B037D030D0A006EAD
S10F1C06616E00696E66006F7666000077
S9030000FC
